{
  "_format": "hh-sol-artifact-1",
  "contractName": "SongPortal",
  "sourceName": "contracts/SongPortal.sol",
  "abi": [
    {
      "inputs": [],
      "stateMutability": "payable",
      "type": "constructor"
    },
    {
      "anonymous": false,
      "inputs": [
        {
          "indexed": true,
          "internalType": "address",
          "name": "from",
          "type": "address"
        },
        {
          "indexed": false,
          "internalType": "uint256",
          "name": "timestamp",
          "type": "uint256"
        },
        {
          "indexed": false,
          "internalType": "string",
          "name": "message",
          "type": "string"
        }
      ],
      "name": "NewSong",
      "type": "event"
    },
    {
      "inputs": [],
      "name": "getAllSongs",
      "outputs": [
        {
          "components": [
            {
              "internalType": "address",
              "name": "sender",
              "type": "address"
            },
            {
              "internalType": "string",
              "name": "message",
              "type": "string"
            },
            {
              "internalType": "uint256",
              "name": "timestamp",
              "type": "uint256"
            }
          ],
          "internalType": "struct SongPortal.Song[]",
          "name": "",
          "type": "tuple[]"
        }
      ],
      "stateMutability": "view",
      "type": "function"
    },
    {
      "inputs": [],
      "name": "getTotalSongs",
      "outputs": [
        {
          "internalType": "uint256",
          "name": "",
          "type": "uint256"
        }
      ],
      "stateMutability": "view",
      "type": "function"
    },
    {
      "inputs": [
        {
          "internalType": "address",
          "name": "",
          "type": "address"
        }
      ],
      "name": "lastSharedAt",
      "outputs": [
        {
          "internalType": "uint256",
          "name": "",
          "type": "uint256"
        }
      ],
      "stateMutability": "view",
      "type": "function"
    },
    {
      "inputs": [
        {
          "internalType": "string",
          "name": "_message",
          "type": "string"
        }
      ],
      "name": "shareSong",
      "outputs": [],
      "stateMutability": "nonpayable",
      "type": "function"
    }
  ],
  "bytecode": "0x60806040526200004f6040518060400160405280601981526020017f57652068617665206265656e20636f6e737472756374656421000000000000008152506200007760201b620006041760201c565b606444426200005f9190620001c4565b6200006b919062000261565b60018190555062000308565b62000117816040516024016200008e919062000184565b6040516020818303038152906040527f41304fac000000000000000000000000000000000000000000000000000000007bffffffffffffffffffffffffffffffffffffffffffffffffffffffff19166020820180517bffffffffffffffffffffffffffffffffffffffffffffffffffffffff83818316178352505050506200011a60201b60201c565b50565b60008151905060006a636f6e736f6c652e6c6f679050602083016000808483855afa5050505050565b60006200015082620001a8565b6200015c8185620001b3565b93506200016e8185602086016200022b565b6200017981620002f7565b840191505092915050565b60006020820190508181036000830152620001a0818462000143565b905092915050565b600081519050919050565b600082825260208201905092915050565b6000620001d18262000221565b9150620001de8362000221565b9250827fffffffffffffffffffffffffffffffffffffffffffffffffffffffffffffffff0382111562000216576200021562000299565b5b828201905092915050565b6000819050919050565b60005b838110156200024b5780820151818401526020810190506200022e565b838111156200025b576000848401525b50505050565b60006200026e8262000221565b91506200027b8362000221565b9250826200028e576200028d620002c8565b5b828206905092915050565b7f4e487b7100000000000000000000000000000000000000000000000000000000600052601160045260246000fd5b7f4e487b7100000000000000000000000000000000000000000000000000000000600052601260045260246000fd5b6000601f19601f8301169050919050565b610ff080620003186000396000f3fe608060405234801561001057600080fd5b506004361061004c5760003560e01c8063117edd421461005157806329ef6862146100815780638c9db2b41461009f578063c1e60034146100bd575b600080fd5b61006b60048036038101906100669190610882565b6100d9565b6040516100789190610c82565b60405180910390f35b6100896100f1565b6040516100969190610bae565b60405180910390f35b6100a7610242565b6040516100b49190610c82565b60405180910390f35b6100d760048036038101906100d291906108ab565b61024b565b005b60036020528060005260406000206000915090505481565b60606002805480602002602001604051908101604052809291908181526020016000905b8282101561023957838290600052602060002090600302016040518060600160405290816000820160009054906101000a900473ffffffffffffffffffffffffffffffffffffffff1673ffffffffffffffffffffffffffffffffffffffff1673ffffffffffffffffffffffffffffffffffffffff16815260200160018201805461019e90610e73565b80601f01602080910402602001604051908101604052809291908181526020018280546101ca90610e73565b80156102175780601f106101ec57610100808354040283529160200191610217565b820191906000526020600020905b8154815290600101906020018083116101fa57829003601f168201915b5050505050815260200160028201548152505081526020019060010190610115565b50505050905090565b60008054905090565b42601e600360003373ffffffffffffffffffffffffffffffffffffffff1673ffffffffffffffffffffffffffffffffffffffff168152602001908152602001600020546102989190610d9f565b106102d8576040517f08c379a00000000000000000000000000000000000000000000000000000000081526004016102cf90610c42565b60405180910390fd5b42600360003373ffffffffffffffffffffffffffffffffffffffff1673ffffffffffffffffffffffffffffffffffffffff16815260200190815260200160002081905550600160008082825461032e9190610d9f565b925050819055506103746040518060400160405280601d81526020017f25732068617320736861726564206120736f6e672077697468207573210000008152503361069d565b600260405180606001604052803373ffffffffffffffffffffffffffffffffffffffff16815260200183815260200142815250908060018154018082558091505060019003906000526020600020906003020160009091909190915060008201518160000160006101000a81548173ffffffffffffffffffffffffffffffffffffffff021916908373ffffffffffffffffffffffffffffffffffffffff1602179055506020820151816001019080519060200190610433929190610762565b50604082015181600201555050606460015442446104519190610d9f565b61045b9190610d9f565b6104659190610ea5565b6001819055506032600154116105b1576104b46040518060400160405280600781526020017f257320776f6e21000000000000000000000000000000000000000000000000008152503361069d565b6000655af3107a4000905047811115610502576040517f08c379a00000000000000000000000000000000000000000000000000000000081526004016104f990610c62565b60405180910390fd5b60003373ffffffffffffffffffffffffffffffffffffffff168260405161052890610b99565b60006040518083038185875af1925050503d8060008114610565576040519150601f19603f3d011682016040523d82523d6000602084013e61056a565b606091505b50509050806105ae576040517f08c379a00000000000000000000000000000000000000000000000000000000081526004016105a590610c22565b60405180910390fd5b50505b3373ffffffffffffffffffffffffffffffffffffffff167f2e96c1f7928a9072fdae4127a395c0b9269f4a7dce78ac1d1ee0c22036af97d942836040516105f9929190610c9d565b60405180910390a250565b61069a816040516024016106189190610bd0565b6040516020818303038152906040527f41304fac000000000000000000000000000000000000000000000000000000007bffffffffffffffffffffffffffffffffffffffffffffffffffffffff19166020820180517bffffffffffffffffffffffffffffffffffffffffffffffffffffffff8381831617835250505050610739565b50565b61073582826040516024016106b3929190610bf2565b6040516020818303038152906040527f319af333000000000000000000000000000000000000000000000000000000007bffffffffffffffffffffffffffffffffffffffffffffffffffffffff19166020820180517bffffffffffffffffffffffffffffffffffffffffffffffffffffffff8381831617835250505050610739565b5050565b60008151905060006a636f6e736f6c652e6c6f679050602083016000808483855afa5050505050565b82805461076e90610e73565b90600052602060002090601f01602090048101928261079057600085556107d7565b82601f106107a957805160ff19168380011785556107d7565b828001600101855582156107d7579182015b828111156107d65782518255916020019190600101906107bb565b5b5090506107e491906107e8565b5090565b5b808211156108015760008160009055506001016107e9565b5090565b600061081861081384610cfe565b610ccd565b90508281526020810184848401111561083057600080fd5b61083b848285610e31565b509392505050565b60008135905061085281610fa3565b92915050565b600082601f83011261086957600080fd5b8135610879848260208601610805565b91505092915050565b60006020828403121561089457600080fd5b60006108a284828501610843565b91505092915050565b6000602082840312156108bd57600080fd5b600082013567ffffffffffffffff8111156108d757600080fd5b6108e384828501610858565b91505092915050565b60006108f88383610b2b565b905092915050565b61090981610df5565b82525050565b61091881610df5565b82525050565b600061092982610d3e565b6109338185610d61565b93508360208202850161094585610d2e565b8060005b85811015610981578484038952815161096285826108ec565b945061096d83610d54565b925060208a01995050600181019050610949565b50829750879550505050505092915050565b600061099e82610d49565b6109a88185610d7d565b93506109b8818560208601610e40565b6109c181610f92565b840191505092915050565b60006109d782610d49565b6109e18185610d8e565b93506109f1818560208601610e40565b6109fa81610f92565b840191505092915050565b6000610a12602783610d8e565b91507f4661696c656420746f207769746864726177206d6f6e65792066726f6d20636f60008301527f6e74726163742e000000000000000000000000000000000000000000000000006020830152604082019050919050565b6000610a78600883610d8e565b91507f57616974203330730000000000000000000000000000000000000000000000006000830152602082019050919050565b6000610ab8603583610d8e565b91507f547279696e6720746f207769746864726177206d6f7265206d6f6e657920746860008301527f616e207468657920636f6e7472616374206861732e00000000000000000000006020830152604082019050919050565b6000610b1e600083610d72565b9150600082019050919050565b6000606083016000830151610b436000860182610900565b5060208301518482036020860152610b5b8282610993565b9150506040830151610b706040860182610b7b565b508091505092915050565b610b8481610e27565b82525050565b610b9381610e27565b82525050565b6000610ba482610b11565b9150819050919050565b60006020820190508181036000830152610bc8818461091e565b905092915050565b60006020820190508181036000830152610bea81846109cc565b905092915050565b60006040820190508181036000830152610c0c81856109cc565b9050610c1b602083018461090f565b9392505050565b60006020820190508181036000830152610c3b81610a05565b9050919050565b60006020820190508181036000830152610c5b81610a6b565b9050919050565b60006020820190508181036000830152610c7b81610aab565b9050919050565b6000602082019050610c976000830184610b8a565b92915050565b6000604082019050610cb26000830185610b8a565b8181036020830152610cc481846109cc565b90509392505050565b6000604051905081810181811067ffffffffffffffff82111715610cf457610cf3610f63565b5b8060405250919050565b600067ffffffffffffffff821115610d1957610d18610f63565b5b601f19601f8301169050602081019050919050565b6000819050602082019050919050565b600081519050919050565b600081519050919050565b6000602082019050919050565b600082825260208201905092915050565b600081905092915050565b600082825260208201905092915050565b600082825260208201905092915050565b6000610daa82610e27565b9150610db583610e27565b9250827fffffffffffffffffffffffffffffffffffffffffffffffffffffffffffffffff03821115610dea57610de9610ed6565b5b828201905092915050565b6000610e0082610e07565b9050919050565b600073ffffffffffffffffffffffffffffffffffffffff82169050919050565b6000819050919050565b82818337600083830152505050565b60005b83811015610e5e578082015181840152602081019050610e43565b83811115610e6d576000848401525b50505050565b60006002820490506001821680610e8b57607f821691505b60208210811415610e9f57610e9e610f34565b5b50919050565b6000610eb082610e27565b9150610ebb83610e27565b925082610ecb57610eca610f05565b5b828206905092915050565b7f4e487b7100000000000000000000000000000000000000000000000000000000600052601160045260246000fd5b7f4e487b7100000000000000000000000000000000000000000000000000000000600052601260045260246000fd5b7f4e487b7100000000000000000000000000000000000000000000000000000000600052602260045260246000fd5b7f4e487b7100000000000000000000000000000000000000000000000000000000600052604160045260246000fd5b6000601f19601f8301169050919050565b610fac81610df5565b8114610fb757600080fd5b5056fea264697066735822122035c0783f4621e1ffafae9033091a597da146e09d0e36d886513587504a85bfa864736f6c63430008000033",
  "linkReferences": {},
  "deployedLinkReferences": {}
}